{
  "contractName": "SimpleStorage",
  "abi": [
    {
      "inputs": [],
      "stateMutability": "nonpayable",
      "type": "constructor"
    },
    {
      "inputs": [
        {
          "internalType": "uint256",
          "name": "data_",
          "type": "uint256"
        }
      ],
      "name": "setData",
      "outputs": [],
      "stateMutability": "nonpayable",
      "type": "function"
    },
    {
      "inputs": [],
      "name": "getData",
      "outputs": [
        {
          "internalType": "uint256",
          "name": "",
          "type": "uint256"
        }
      ],
      "stateMutability": "view",
      "type": "function"
    }
  ],
  "bytecode": "0x608060405234801561001057600080fd5b5033600160006101000a81548173ffffffffffffffffffffffffffffffffffffffff021916908373ffffffffffffffffffffffffffffffffffffffff160217905550610283806100616000396000f3fe608060405234801561001057600080fd5b50600436106100365760003560e01c80633bc5de301461003b5780635b4b73a914610059575b600080fd5b610043610075565b6040516100509190610131565b60405180910390f35b610073600480360381019061006e919061017d565b61007e565b005b60008054905090565b600160009054906101000a900473ffffffffffffffffffffffffffffffffffffffff1673ffffffffffffffffffffffffffffffffffffffff163373ffffffffffffffffffffffffffffffffffffffff161461010e576040517f08c379a00000000000000000000000000000000000000000000000000000000081526004016101059061022d565b60405180910390fd5b8060008190555050565b6000819050919050565b61012b81610118565b82525050565b60006020820190506101466000830184610122565b92915050565b600080fd5b61015a81610118565b811461016557600080fd5b50565b60008135905061017781610151565b92915050565b6000602082840312156101935761019261014c565b5b60006101a184828501610168565b91505092915050565b600082825260208201905092915050565b7f53696d706c6553746f726167653a204f6e6c79206f776e657220697320616c6c60008201527f6f77656400000000000000000000000000000000000000000000000000000000602082015250565b60006102176024836101aa565b9150610222826101bb565b604082019050919050565b600060208201905081810360008301526102468161020a565b905091905056fea26469706673582212209996897ae09655c068e0f1b0c3a3b37a545b390906c792df8f28e672278114a964736f6c634300080a0033",
  "immutableReferences": {},
  "source": "// SPDX-License-Identifier: MIT\r\npragma solidity ^0.8.0;\r\n\r\ncontract SimpleStorage {\r\n  uint private _data;\r\n  address private _owner;\r\n\r\n  constructor() {\r\n    _owner = msg.sender;\r\n  }\r\n\r\n  function setData(uint data_) external {\r\n    require(\r\n      msg.sender == _owner, \r\n      \"SimpleStorage: Only owner is allowed\"\r\n    );\r\n    _data = data_;\r\n  }\r\n\r\n  function getData() external view returns (uint)  {\r\n    return _data;\r\n  }\r\n}",
  "sourcePath": "C:\\My Data\\Sem0\\Solidity\\educative-answer\\contracts\\SimpleStorage2.sol",
  "compiler": {
    "name": "solc",
    "version": "0.8.10+commit.fc410830.Emscripten.clang"
  },
  "schemaVersion": "3.4.3",
  "updatedAt": "2022-07-27T10:37:25.431Z",
  "devdoc": {
    "kind": "dev",
    "methods": {},
    "version": 1
  },
  "userdoc": {
    "kind": "user",
    "methods": {},
    "version": 1
  }
}